:1000000012C02AC029C05DC027C082C09EC024C0C3
:1000100023C022C021C020C01FC01EC01DC01CC0E4
:100020001BC01AC019C011241FBECFEDCDBF10E0F8
:10003000A0E6B0E0E4E9F6E002C005900D92A23639
:10004000B107D9F710E0A2E6B0E001C01D92AF37CA
:10005000B107E1F70FD11CC3D3CFDF93CF930F923A
:10006000CDB7DEB789835D9BFECF89818CB90F90B8
:10007000CF91DF91089589B992B986E083B988E973
:100080008AB90895CF93DF93EC018881882329F002
:100090008991E3DF88818823D9F7DF91CF91089593
:1000A00081E0809362001EBC1DBC1CBC84E088B94A
:1000B000B898C29A81EC8EBD809162008823E1F7E6
:1000C00008951F920F920FB60F9211248F939F9352
:1000D000AF93BF9384B595B5A0E0B0E0809367007F
:1000E00090936800A0936900B0936A001EBCC29808
:1000F000B89A83E08A95F1F7000010926200BF91F0
:10010000AF919F918F910F900FBE0F901F901895F8
:100110001F920F920FB60F9211248F931EBCC2989C
:10012000B89A83E08A95F1F7000010926700109268
:1001300068001092690010926A00109262008F911C
:100140000F900FBE0F901F9018951F920F920FB631
:100150000F9211248F939F93AF93BF9380917C0054
:1001600090917D0082BF92B388E0892782BBB39BC8
:1001700013C08091780090917900A0917A00B0919D
:100180007B000196A11DB11D8093780090937900AA
:10019000A0937A00B0937B00BF91AF919F918F9114
:1001A0000F900FBE0F901F9018950F931F93DF9322
:1001B000CF9300D0CDB7DEB78C0160916B0070910A
:1001C0006C0080916D0090916E0024E630E040E07C
:1001D00050E019D23A83298389819A819C01220FA8
:1001E000331F220F331F220F331F820F931F9A8357
:1001F000898389819A810F979A83898389819A81DA
:10020000F80191838083CE5FCDBFCF91DF911F91A5
:100210000F9108950F931F93DF93CF9300D0CDB725
:10022000DEB78C0160916B0070916C0080916D0065
:1002300090916E0024E630E040E050E0E4D13A8353
:10024000298389819A8164EF7FEFCBD19A83898357
:1002500089819A8181509F4F9A83898389819A816C
:10026000F80191838083CE5FCDBFCF91DF911F9145
:100270000F9108959F92AF92BF92CF92DF92EF922B
:10028000FF920F931F93CF93DF938CE887BB18BA2D
:10029000C39A11BA8E9A8D9A8C9A8B9A8A9A12BAAC
:1002A000969A959A949A82B382BB929A13BE8AE8E0
:1002B00089BF80E090E0C9D1A0E0B0E08093630006
:1002C00090936400A0936500B093660082E090E094
:1002D000BCD1A0E0B0E08093740090937500A0932F
:1002E0007600B0937700B79B60C083ED90E30197F1
:1002F000F1F700C00000789401C0D2DEB799FDCFBD
:100300008091670090916800A0916900B0916A00A7
:100310008093630090936400A0936500B09366009F
:100320008091630090916400A0916500B091660097
:1003300080599140A040B040809363009093640046
:10034000A0936500B0936600F8942091630030910B
:100350006400409165005091660080E090E0B90132
:1003600077D1E199FECF8091630090916400A091D4
:100370006500B0916600B695A7959795879580938F
:10038000740090937500A0937600B093770020914D
:10039000740030917500409176005091770082E0B2
:1003A00090E0B90155D1E199FECF78940F2EF4E198
:1003B000EF2EF0E0FF2EF0E00F2FF0E01F2FF02DDA
:1003C000DD24DA94CC24C394CCE7D0E00F2EF3E004
:1003D0009F2EF02D0F2EFAEFAF2EBB24F02D83ECC5
:1003E00099E00197F1F700C000005ADE80916F009C
:1003F00090917000A0917100B091720020916700FF
:10040000309168004091690050916A00820F931FFB
:10041000A41FB51F80936F0090937000A09371008C
:10042000B0937200809173008F5F8093730080910E
:1004300073008431A0F260916F0070917000809120
:10044000710090917200A8019701DDD020936B009C
:1004500030936C0040936D0050936E0010927300C7
:1004600010926F0010927000109271001092720042
:10047000809161008130A1F5209174003091750068
:10048000409176005091770080916B0090916C00C4
:10049000A0916D00B0916E0022533040404050401A
:1004A000281739074A075B07D8F420917400309168
:1004B0007500409176005091770080916B0090918B
:1004C0006C00A0916D00B0916E002E5C3F4F4F4FBD
:1004D0005F4F82179307A407B50710F410926100CD
:1004E00080916100882309F076C0209174003091DA
:1004F0007500409176005091770080916B0090914B
:100500006C00A0916D00B0916E00225330404040CD
:10051000504082179307A407B507F8F48091600054
:100520008F3F81F4CE0176DE80917C0090917D003A
:100530008B3F910520F0B0927D00A0927C009298B4
:1005400093BE4DCF80916000813009F048CF9298E2
:10055000D0926000C0927E0042CF20917400309112
:100560007500409176005091770080916B009091DA
:100570006C00A0916D00B0916E002E5C3F4F4F4F0C
:100580005F4F281739074A075B07F8F4809160002E
:100590008F3F81F4CE0109DE80917C0090917D0037
:1005A0008B3F910520F0B0927D00A0927C00929A42
:1005B00093BE15CF80916000882309F010CF929AE6
:1005C000D0926000C0927E000ACF10927D001092FF
:1005D0007C0013BE04CF10927D0010927C0013BEED
:1005E000FECE5527002480FF02C0060E571F660F5F
:1005F000771F6115710521F096958795009799F7FA
:10060000952F802D0895A1E21A2EAA1BBB1BFD0178
:100610000DC0AA1FBB1FEE1FFF1FA217B307E407E1
:10062000F50720F0A21BB30BE40BF50B661F771F39
:10063000881F991F1A9469F7609570958095909519
:100640009B01AC01BD01CF010895A8E142E005C0C6
:1006500011D0272F10C0A82F862FE82FE199FECFA9
:100660001FBA05C0EEBBE09AE3950DB20D92415062
:10067000C8F70895262FE199FECF1CBA1FBA8EBB8A
:100680002DBB0FB6F894E29AE19A0FBE0196089539
:04069000F894FFCF0C
:02069400FF0164
:00000001FF
